:020000040800F2
:1000000000000120F14F0008214E00082F4E00088B
:10001000354E00083B4E0008414E0008000000002D
:10002000000000000000000000000000312F000868
:10003000474E00080000000041310008554E0008FE
:10004000415000084150000841500008415000084C
:10005000415000084150000841500008415000083C
:10006000415000084150000841500008415000082C
:10007000415000084150000841500008415000081C
:10008000415000084150000841500008415000080C
:1000900041500008415000084150000841500008FC
:1000A00041500008415000084150000841500008EC
:1000B00041500008415000084150000841500008DC
:1000C00041500008415000084150000841500008CC
:1000D0004150000841500008654E0008415000089A
:1000E00041500008415000084150000841500008AC
:1000F000415000084150000841500008415000089C
:1001000041500008000000000000000041500008BD
:10011000415000084150000841500008415000087B
:10012000415000084150000841500008415000086B
:10013000415000084150000800000000000000008D
:1001400041500008415000084150000800000000E4
:10015000000000000000000000000000000000009F
:10016000415000084150000841500008415000082B
:10017000415000084150000841500008415000081B
:10018000415000084150000800000000000000003D
:0401900041500008D2
:1001A00010B5054C237833B9044B13B10448AFF3B1
:1001B00000800123237010BD180000200000000003
:1001C000B450000808B5034B1BB103490348AFF313
:1001D000008008BD000000001C000020B450000892
:1001E00080B500AF084A084B1B6843F0100313604A
:1001F000032000F025F90F2000F008F804F0E8FDD6
:100200000023184680BD00BF0020024080B582B0A8
:1002100000AF7860124B1A68124B1B7819464FF4E6
:100220007A73B3FBF1F3B2FBF3F3184600F03DF938
:100230000346002B01D001230EE07B680F2B0AD868
:10024000002279684FF0FF3000F005F9064A7B681C
:100250001360002300E0012318460837BD4680BD27
:1002600014000020040000200000002080B400AF33
:10027000064B1B781A46064B1B681344044A13604E
:1002800000BFBD465DF8047B704700BF040000203E
:10029000C41A002080B400AF034B1B681846BD464B
:1002A0005DF8047B704700BFC41A002080B485B09D
:1002B00000AF78607B6803F00703FB600C4BDB68E2
:1002C000BB60BA684FF6FF031340BB60FB681A02BD
:1002D000BB68134343F0BF6343F40033BB60044A7D
:1002E000BB68D36000BF1437BD465DF8047B704720
:1002F00000ED00E080B400AF044BDB681B0A03F0A4
:1003000007031846BD465DF8047B704700ED00E02A
:1003100080B483B000AF0346FB71094997F90730F9
:100320005B09FA7902F01F02012000FA02F241F89B
:10033000232000BF0C37BD465DF8047B704700BF2B
:1003400000E100E080B483B000AF03463960FB7188
:1003500097F90730002B0BDA0D49FB7903F00F03F7
:10036000043B3A68D2B21201D2B20B441A7609E0C9
:10037000084997F907303A68D2B21201D2B20B4459
:1003800083F8002300BF0C37BD465DF8047B70473F
:1003900000ED00E000E100E080B489B000AFF8605B
:1003A000B9607A60FB6803F00703FB61FB69C3F186
:1003B0000703042B28BF0423BB61FB690433062B0E
:1003C00002D9FB69033B00E000237B610122BB698A
:1003D00002FA03F35A1EBB681A407B699A40012156
:1003E0007B6901FA03F3591E7B680B4013431846DF
:1003F0002437BD465DF8047B7047000080B582B0AD
:1004000000AF78607B68013BB3F1807F01D30123AB
:100410000FE00A4A7B68013B53600F214FF0FF3029
:10042000FFF790FF054B00229A60044B07221A60E9
:10043000002318460837BD4680BD00BF10E000E02D
:1004400080B582B000AF78607868FFF72FFF00BFFB
:100450000837BD4680BD80B586B000AF0346B960A1
:100460007A60FB7300237B61FFF744FF78617A6851
:10047000B9687869FFF790FF024697F90F30114687
:100480001846FFF75FFF00BF1837BD4680BD80B537
:1004900082B000AF0346FB7197F907301846FFF7AB
:1004A00037FF00BF0837BD4680BD80B582B000AFC2
:1004B00078607868FFF7A2FF034618460837BD4604
:1004C00080BD80B584B000AF78600023FB737B688B
:1004D00093F82130022B05D07B6804229A63012314
:1004E000FB7327E07B681B687A681268126822F049
:1004F0000E021A607B681B687A681268126822F024
:1005000001021A607B68DB6B7A68126C012101FAC8
:1005100002F25A607B68012283F821207B68002266
:1005200083F820207B685B6B002B03D07B685B6BC0
:1005300078689847FB7B18461037BD4680BD0000A1
:1005400080B487B000AF7860396000237B610023FE
:10055000FB6000233B6160E13B681A6801217B6915
:1005600001FA03F31340FB60FB68002B00F052819B
:100570003B685B68022B03D03B685B68122B23D17E
:100580007B69DA087B68083253F822303B617B696B
:1005900003F007039B000F2202FA03F3DB433A69DF
:1005A00013403B613B681A697B6903F007039B00BA
:1005B00002FA03F33A6913433B617B69DA087B680B
:1005C0000832396943F822107B681B683B617B69FC
:1005D0005B00032202FA03F3DB433A6913403B61F9
:1005E0003B685B6803F003027B695B0002FA03F37C
:1005F0003A6913433B617B683A691A603B685B6800
:10060000012B0BD03B685B68022B07D03B685B6813
:10061000112B03D03B685B68122B30D17B689B6841
:100620003B617B695B00032202FA03F3DB433A6917
:1006300013403B613B68DA687B695B0002FA03F3B5
:100640003A6913433B617B683A699A607B685B68EF
:100650003B6101227B6902FA03F3DB433A691340F1
:100660003B613B685B681B0903F001027B6902FA8E
:1006700003F33A6913433B617B683A695A607B68CC
:10068000DB683B617B695B00032202FA03F3DB4317
:100690003A6913403B613B689A687B695B0002FAE8
:1006A00003F33A6913433B617B683A69DA603B685C
:1006B0005B6803F08053002B00F0AC805E4A5E4B19
:1006C0009B6943F0010393615B4B9B6903F001035A
:1006D000BB60BB68594A7B699B08023352F82330E0
:1006E0003B617B6903F003039B000F2202FA03F3D3
:1006F000DB433A6913403B617B68B3F1904F25D0EF
:100700007B684F4A93421FD07B684E4A934219D070
:100710007B684D4A934213D07B684C4A93420DD07C
:100720007B684B4A934207D07B684A4A934201D187
:1007300006230CE007230AE0052308E0042306E073
:10074000032304E0022302E0012300E000237A698E
:1007500002F00302920093403A6913433B61374928
:100760007B699B0802333A6941F823203A4B1B68A6
:100770003B61FB68DB433A6913403B613B685B6864
:1007800003F48033002B03D03A69FB6813433B61C9
:10079000314A3B691360304B5B683B61FB68DB436C
:1007A0003A6913403B613B685B6803F40033002BFC
:1007B00003D03A69FB6813433B61274A3B695360A6
:1007C000254B9B683B61FB68DB433A6913403B6107
:1007D0003B685B6803F48013002B03D03A69FB6825
:1007E00013433B611C4A3B6993601B4BDB683B61D5
:1007F000FB68DB433A6913403B613B685B6803F489
:100800000013002B03D03A69FB6813433B61124A83
:100810003B69D3607B6901337B613B681A687B6904
:1008200022FA03F3002B7FF497AE00BF1C37BD46BE
:100830005DF8047B704700BF0010024000000140DB
:100840000004004800080048000C00480010004860
:1008500000140048001800480004014080B485B02E
:1008600000AF78600B467B807B681A697B881340F9
:10087000002B02D00123FB7301E00023FB73FB7B01
:1008800018461437BD465DF8047B704780B483B0CA
:1008900000AF78600B467B8013467B707B78002B23
:1008A00003D07A887B689A6102E07A887B689A62D2
:1008B00000BF0C37BD465DF8047B704780B483B041
:1008C00000AF78600B467B807B685A697B885A4012
:1008D0007B685A6100BF0C37BD465DF8047B7047EA
:1008E00080B5ADF5007D00AF3B1D18603B1D1B685A
:1008F000002B02D1012300F0DABE3B1D1B681B68F0
:1009000003F00103002B00F06481B04B5B6803F03F
:100910000C03042B0CD0AD4B5B6803F00C03082BCD
:100920005AD1AA4B5B6803F4C033B3F5803F53D16F
:100930004FF40033C7F8F431D7F8F43193FAA3F346
:10094000C7F8F031D7F8F031B3FA83F3DBB25B09C3
:10095000DBB243F00103DBB2012B02D19B4B1B68DE
:1009600015E04FF40033C7F8EC31D7F8EC3193FAC7
:10097000A3F3C7F8E8314FF40033C7F8E431D7F8F0
:10098000E43193FAA3F3C7F8E031904B5B6A4FF47C
:100990000032C7F8DC21D7F8DC2192FAA2F2C7F8BE
:1009A000D821D7F8D821B2FA82F252B242F020020E
:1009B00052B2D2B202F01F02012101FA02F2134038
:1009C000002B00F005813B1D1B685B68002B40F08D
:1009D000FF80012300F06BBE3B1D1B685B68B3F515
:1009E000803F06D1794A794B1B6843F4803313600A
:1009F00030E03B1D1B685B68002B0CD1734A734BC6
:100A00001B6823F480331360704A704B1B6823F417
:100A1000802313601EE03B1D1B685B68B3F5A02FAD
:100A20000CD16A4A694B1B6843F480231360674A00
:100A3000664B1B6843F4803313600BE0634A634BDF
:100A40001B6823F480331360604A604B1B6823F4F7
:100A5000802313603B1D1B685B68002B5AD0FFF797
:100A600019FCC7F8F8010AE0FFF714FC0246D7F8B2
:100A7000F831D31A642B02D9032300F018BE4FF4C7
:100A80000033C7F8D431D7F8D43193FAA3F3C7F8B9
:100A9000D031D7F8D031B3FA83F3DBB25B09DBB2E4
:100AA00043F00103DBB2012B02D1484B1B6815E078
:100AB0004FF40033C7F8CC31D7F8CC3193FAA3F315
:100AC000C7F8C8314FF40033C7F8C431D7F8C43180
:100AD00093FAA3F3C7F8C0313C4B5B6A4FF4003282
:100AE000C7F8BC21D7F8BC2192FAA2F2C7F8B82106
:100AF000D7F8B821B2FA82F252B242F0200252B2D2
:100B0000D2B202F01F02012101FA02F21340002BBF
:100B1000AAD05EE0FFF7BEFBC7F8F8010AE0FFF7D6
:100B2000B9FB0246D7F8F831D31A642B02D9032354
:100B300000F0BDBD4FF40033C7F8B431D7F8B4317D
:100B400093FAA3F3C7F8B031D7F8B031B3FA83F30F
:100B5000DBB25B09DBB243F00103DBB2012B02D154
:100B60001A4B1B6815E04FF40033C7F8AC31D7F8C7
:100B7000AC3193FAA3F3C7F8A8314FF40033C7F8A8
:100B8000A431D7F8A43193FAA3F3C7F8A0310F4BDF
:100B90005B6A4FF40032C7F89C21D7F89C2192FA87
:100BA000A2F2C7F89821D7F89821B2FA82F252B28D
:100BB00042F0200252B2D2B202F01F02012101FA29
:100BC00002F21340002BAAD103E000BF0010024044
:100BD00000BF3B1D1B681B6803F00203002B00F0E5
:100BE0007181D04B5B6803F00C03002B0CD0CD4B14
:100BF0005B6803F00C03082B6ED1CA4B5B6803F4EF
:100C0000C033B3F5004F67D10223C7F89431D7F84A
:100C1000943193FAA3F3C7F89031D7F89031B3FA2F
:100C200083F3DBB25B09DBB243F00103DBB2012BE0
:100C300002D1BC4B1B6813E00223C7F88C31D7F8F4
:100C40008C3193FAA3F3C7F888310223C7F88431B3
:100C5000D7F8843193FAA3F3C7F88031B14B5B6ABC
:100C60000222C7F87C21D7F87C2192FAA2F2C7F8B9
:100C70007821D7F87821B2FA82F252B242F02002FB
:100C800052B2D2B202F01F02012101FA02F2134065
:100C9000002B07D03B1D1B68DB68012B02D0012312
:100CA00000F005BD9F489F4B1B6823F0F8023B1DD9
:100CB0001B681969F823C7F87431D7F8743193FAAF
:100CC000A3F3C7F87031D7F87031B3FA83F301FAA0
:100CD00003F313430360F5E03B1D1B68DB68002B47
:100CE00000F085800123C7F86C31D7F86C3193FA96
:100CF000A3F3C7F86831D7F86831B3FA83F303F187
:100D0000845303F584139B001A4601231360FFF7F5
:100D1000C1FAC7F8F8010AE0FFF7BCFA0246D7F8B3
:100D2000F831D31A022B02D9032300F0C0BC0223EE
:100D3000C7F86431D7F8643193FAA3F3C7F8603188
:100D4000D7F86031B3FA83F3DBB25B09DBB243F06F
:100D50000103DBB2012B02D1724B1B6813E00223AB
:100D6000C7F85C31D7F85C3193FAA3F3C7F8583170
:100D70000223C7F85431D7F8543193FAA3F3C7F8D4
:100D80005031684B5B6A0222C7F84C21D7F84C21DE
:100D900092FAA2F2C7F84821D7F84821B2FA82F2B3
:100DA00052B242F0200252B2D2B202F01F0201212E
:100DB00001FA02F21340002BAED05A48594B1B687F
:100DC00023F0F8023B1D1B681969F823C7F844316A
:100DD000D7F8443193FAA3F3C7F84031D7F840313C
:100DE000B3FA83F301FA03F3134303606AE00123C8
:100DF000C7F83C31D7F83C3193FAA3F3C7F8383140
:100E0000D7F83831B3FA83F303F1845303F584132D
:100E10009B001A4600231360FFF73CFAC7F8F8015D
:100E20000AE0FFF737FA0246D7F8F831D31A022B57
:100E300002D9032300F03BBC0223C7F83431D7F8B2
:100E4000343193FAA3F3C7F83031D7F83031B3FA1D
:100E500083F3DBB25B09DBB243F00103DBB2012BAE
:100E600002D1304B1B6813E00223C7F82C31D7F8AE
:100E70002C3193FAA3F3C7F828310223C7F82431A1
:100E8000D7F8243193FAA3F3C7F82031254B5B6AD6
:100E90000222C7F81C21D7F81C2192FAA2F2C7F847
:100EA0001821D7F81821B2FA82F252B242F0200289
:100EB00052B2D2B202F01F02012101FA02F2134033
:100EC000002BAED13B1D1B681B6803F00803002BF1
:100ED00000F0D7803B1D1B685B69002B66D00123A7
:100EE000C7F81431D7F8143193FAA3F3C7F81031C7
:100EF000D7F81031B3FA83F31A460B4B13449B0017
:100F00001A4601231360FFF7C5F9C7F8F8010DE091
:100F1000FFF7C0F90246D7F8F831D31A022B05D9EA
:100F20000323C4E300100240208190100223C7F87D
:100F30000C31D7F80C3193FAA3F3C7F80831022328
:100F4000C7F80431D7F8043193FAA3F207F5807398
:100F50001A6007F1FC0302221A6007F1FC031B6808
:100F600093FAA3F207F1F8031A60A54B5A6A07F146
:100F7000F4030221196007F1F4031B6893FAA3F14B
:100F800007F1F003196007F1F0031B68B3FA83F36C
:100F90005BB243F060035BB2DBB203F01F030121DD
:100FA00001FA03F31340002BB2D06AE007F1EC031F
:100FB00001221A6007F1EC031B6893FAA3F207F110
:100FC000E8031A6007F1E8031B68B3FA83F31A46D3
:100FD0008C4B13449B001A4600231360FFF75AF909
:100FE000C7F8F80109E0FFF755F90246D7F8F831DC
:100FF000D31A022B01D9032359E307F1E403022298
:101000001A6007F1E4031B6893FAA3F207F1E00307
:101010001A6007F1DC0302221A6007F1DC031B6887
:1010200093FAA3F207F1D8031A6007F1D40302225E
:101030001A6007F1D4031B6893FAA3F207F1D003F7
:101040001A606F4B5A6A07F1CC030221196007F14D
:10105000CC031B6893FAA3F107F1C803196007F1E9
:10106000C8031B68B3FA83F35BB243F060035BB25F
:10107000DBB203F01F03012101FA03F31340002B3D
:10108000B1D13B1D1B681B6803F00403002B00F06B
:101090005981002387F8FF31594BDB6903F08053F6
:1010A000002B12D1564A564BDB6943F08053D36173
:1010B000534BDB6903F0805207F10C031A6007F110
:1010C0000C031B68012387F8FF314F4B1B6803F4A7
:1010D0008073002B1AD14C4A4B4B1B6843F480732E
:1010E0001360FFF7D7F8C7F8F80109E0FFF7D2F867
:1010F0000246D7F8F831D31A642B01D90323D6E27C
:10110000414B1B6803F48073002BEFD03B1D1B6821
:101110009B68012B06D13A4A394B1B6A43F0010305
:1011200013622FE03B1D1B689B68002B0CD1344AD7
:10113000334B1B6A23F001031362314A304B1B6AA5
:1011400023F0040313621DE03B1D1B689B68052B05
:101150000CD12B4A2A4B1B6A43F004031362284A22
:10116000274B1B6A43F0010313620BE0244A244B14
:101170001B6A23F001031362214A214B1B6A23F0EF
:10118000040313623B1D1B689B68002B6BD0FFF7A9
:1011900081F8C7F8F8010BE0FFF77CF80246D7F8B2
:1011A000F831D31A41F28832934201D903237EE207
:1011B00007F1C40302221A6007F1C4031B6893FA03
:1011C000A3F207F1C0031A6007F1BC0302221A6000
:1011D00007F1BC031B6893FAA3F207F1B8031A6086
:1011E00007F1B8031B68B3FA83F3DBB25B09DBB228
:1011F00043F00203DBB2022B08D1014B1B6A13E060
:1012000000100240208190100070004007F1B403EC
:1012100002221A6007F1B4031B6893FAA3F207F1E4
:10122000B0031A60C04B5B6A07F1AC020221116087
:1012300007F1AC02126892FAA2F107F1A80211605C
:1012400007F1A8021268B2FA82F252B242F04002EA
:1012500052B2D2B202F01F02012101FA02F213408F
:10126000002B99D064E0FFF715F8C7F8F8010BE000
:10127000FFF710F80246D7F8F831D31A41F2883256
:10128000934201D9032312E207F1A40302221A6058
:1012900007F1A4031B6893FAA3F207F1A0031A60F5
:1012A00007F19C0302221A6007F19C031B6893FA62
:1012B000A3F207F198031A6007F198031B68B3FAC9
:1012C00083F3DBB25B09DBB243F00203DBB2022B38
:1012D00002D1954B1B6A0DE007F1940302221A60BC
:1012E00007F194031B6893FAA3F207F190031A60C5
:1012F0008D4B5B6A07F18C020221116007F18C02B1
:10130000126892FAA2F107F18802116007F18802CF
:101310001268B2FA82F252B242F0400252B2D2B233
:1013200002F01F02012101FA02F21340002B9FD1AB
:1013300097F8FF31012B05D17B4A7B4BDB6923F00A
:101340008053D3613B1D1B689B69002B00F0AE816D
:10135000754B5B6803F00C03082B00F0A5813B1D67
:101360001B689B69022B40F01D8107F184034FF03D
:1013700080721A6007F184031B6893FAA3F207F1E5
:1013800080031A6007F180031B68B3FA83F303F14B
:10139000845303F584139B001A4600231360FEF761
:1013A00079FFC7F8F80109E0FEF774FF0246D7F8A5
:1013B000F831D31A022B01D9032378E107F17C031A
:1013C0004FF000721A6007F17C031B6893FAA3F2D6
:1013D00007F178031A6007F178031B68B3FA83F307
:1013E000DBB25B09DBB243F00103DBB2012B02D1BC
:1013F0004D4B1B681BE007F174034FF000721A603D
:1014000007F174031B6893FAA3F207F170031A60E3
:1014100007F16C034FF000721A6007F16C031B6850
:1014200093FAA3F207F168031A603F4B5B6A07F176
:1014300064024FF00071116007F16402126892FAC1
:10144000A2F107F16002116007F160021268B2FABE
:1014500082F252B242F0200252B2D2B202F01F0225
:10146000012101FA02F21340002B9DD12E492E4B8F
:10147000DB6A23F00F023B1D1B685B6A1343CB62E0
:101480002948294B5B6823F476123B1D1B68196AB7
:101490003B1D1B68DB690B431343436007F15C038F
:1014A0004FF080721A6007F15C031B6893FAA3F295
:1014B00007F158031A6007F158031B68B3FA83F366
:1014C00003F1845303F584139B001A460123136030
:1014D000FEF7E0FEC7F8F80109E0FEF7DBFE024682
:1014E000D7F8F831D31A022B01D90323DFE007F133
:1014F00054034FF000721A6007F154031B6893FA0B
:10150000A3F207F150031A6007F150031B68B3FA06
:1015100083F3DBB25B09DBB243F00103DBB2012BE7
:1015200004D1014B1B681DE00010024007F14C0381
:101530004FF000721A6007F14C031B6893FAA3F294
:1015400007F148031A6007F144034FF000721A6074
:1015500007F144031B6893FAA3F207F140031A60F2
:10156000554B5B6A07F13C024FF00071116007F1C7
:101570003C02126892FAA2F107F13802116007F1F9
:1015800038021268B2FA82F252B242F0200252B22B
:10159000D2B202F01F02012101FA02F21340002B25
:1015A0009BD083E007F134034FF080721A6007F19B
:1015B00034031B6893FAA3F207F130031A6007F1B2
:1015C00030031B68B3FA83F303F1845303F58413E8
:1015D0009B001A4600231360FEF75CFEC7F8F80173
:1015E00009E0FEF757FE0246D7F8F831D31A022B6E
:1015F00001D903235BE007F12C034FF000721A605E
:1016000007F12C031B6893FAA3F207F128031A6071
:1016100007F128031B68B3FA83F3DBB25B09DBB283
:1016200043F00103DBB2012B02D1234B1B681BE00B
:1016300007F124034FF000721A6007F124031B68BE
:1016400093FAA3F207F120031A6007F11C034FF08D
:1016500000721A6007F11C031B6893FAA3F207F1EA
:1016600018031A60144B5B6A07F114024FF0007103
:10167000116007F11402126892FAA2F107F1100248
:10168000116007F110021268B2FA82F252B242F00F
:10169000200252B2D2B202F01F02012101FA02F27C
:1016A0001340002B9DD101E0012300E000231846E8
:1016B00007F50077BD4680BD0010024080B59EB0A2
:1016C00000AF7860396000237B677B68002B01D115
:1016D000012364E1924B1B6803F007023B689A42C6
:1016E00010D28F498E4B1B6823F007023B681343CF
:1016F0000B608B4B1B6803F007023B689A4201D0DA
:1017000001234CE17B681B6803F00203002B08D027
:101710008449844B5B6823F0F0027B689B68134329
:101720004B607B681B6803F00103002B00F0DF8037
:101730007B685B68012B3DD14FF400333B673B6F07
:1017400093FAA3F3FB66FB6EB3FA83F3DBB25B0998
:10175000DBB243F00103DBB2012B02D1714B1B68FA
:101760000FE04FF40033BB66BB6E93FAA3F37B66C6
:101770004FF400333B663B6E93FAA3F3FB65694B72
:101780005B6A4FF40032BA65BA6D92FAA2F27A65DA
:101790007A6DB2FA82F252B242F0200252B2D2B262
:1017A00002F01F02012101FA02F21340002B7DD149
:1017B0000123F4E07B685B68022B3DD14FF000739E
:1017C0003B653B6D93FAA3F3FB64FB6CB3FA83F3C5
:1017D000DBB25B09DBB243F00103DBB2012B02D1C8
:1017E000504B1B680FE04FF00073BB64BB6C93FA67
:1017F000A3F37B644FF000733B643B6C93FAA3F359
:10180000FB63484B5B6A4FF00072BA63BA6B92FAA3
:10181000A2F27A637A6BB2FA82F252B242F02002FA
:1018200052B2D2B202F01F02012101FA02F21340B9
:10183000002B3BD10123B2E002233B633B6B93FAC5
:10184000A3F3FB62FB6AB3FA83F3DBB25B09DBB29F
:1018500043F00103DBB2012B02D1324B1B680DE0D8
:101860000223BB62BB6A93FAA3F37B6202233B624F
:101870003B6A93FAA3F3FB612A4B5B6A0222BA61CB
:10188000BA6992FAA2F27A617A69B2FA82F252B233
:1018900042F0200252B2D2B202F01F02012101FA3C
:1018A00002F21340002B01D1012378E01D491D4BAA
:1018B0005B6823F003027B685B6813434B60FEF7B1
:1018C000E9FC78670AE0FEF7E5FC02467B6FD31A75
:1018D00041F28832934201D9032360E0114B5B68E7
:1018E00003F00C027B685B689B009A42EBD10C4BC7
:1018F0001B6803F007023B689A4215D90849084B58
:101900001B6823F007023B6813430B60044B1B6802
:1019100003F007023B689A4206D001233FE000BF74
:1019200000200240001002407B681B6803F00403A3
:10193000002B08D01C491C4B5B6823F4E0627B68D9
:10194000DB6813434B607B681B6803F00803002BC4
:1019500009D01549144B5B6823F460527B681B69FE
:10196000DB0013434B6000F025F801460E4B5B682B
:1019700003F0F002F0233B613B6993FAA3F3FB60B1
:10198000FB68B3FA83F322FA03F3084AD35C21FA23
:1019900003F3074A13600F20FEF738FC00231846B4
:1019A0007837BD4680BD00BF00100240CC51000812
:1019B0001400002080B48BB000AF0023FB61002333
:1019C000BB6100237B6200237B6100233B622A4BC7
:1019D0005B68FB61FB6903F00C03042B02D0082B4E
:1019E00003D03FE0254B3B623FE0FB6903F47012FC
:1019F0004FF47013BB60BB6893FAA3F37B607B6802
:101A0000B3FA83F322FA03F31D4AD35C7B611A4BCA
:101A1000DB6A03F00F020F233B613B6993FAA3F3E8
:101A2000FB60FB68B3FA83F322FA03F3154AD35C35
:101A3000BB61FB6903F48033002B08D00F4ABB69FC
:101A4000B2FBF3F37A6902FB03F37B6207E00B4A14
:101A5000BB69B2FBF3F37A6902FB03F37B627B6A37
:101A60003B6202E0054B3B6200BF3B6A18462C37E5
:101A7000BD465DF8047B70470010024000127A00FA
:101A8000AC510008BC51000880B400AF034B1B6888
:101A90001846BD465DF8047B704700BF1400002067
:101AA00080B582B000AFFFF7EFFF01460B4B5B68DC
:101AB00003F4E0624FF4E0637B607B6893FAA3F386
:101AC0003B603B68B3FA83F322FA03F3044AD35C26
:101AD00021FA03F318460837BD4680BD00100240C6
:101AE000DC51000880B582B000AFFFF7CDFF0146A2
:101AF0000B4B5B6803F460524FF460537B607B6870
:101B000093FAA3F33B603B68B3FA83F322FA03F33F
:101B1000044AD35C21FA03F318460837BD4680BD5A
:101B200000100240DC51000880B592B000AF786030
:101B300000233B640023FB637B681B6803F4803352
:101B4000002B00F0D680002387F847304D4BDB692F
:101B500003F08053002B0ED14A4A4A4BDB6943F015
:101B60008053D361474BDB6903F08053BB60BB6894
:101B7000012387F84730444B1B6803F48073002B24
:101B800018D1414A404B1B6843F480731360FEF741
:101B900081FB386408E0FEF77DFB02463B6CD31AFC
:101BA000642B01D90323D4E1374B1B6803F4807302
:101BB000002BF0D0334B1B6A03F44073FB63FB6BC9
:101BC000002B00F083807B685B6803F44072FB6B42
:101BD0009A427BD02B4B1B6A23F44073FB634FF478
:101BE00080333B633B6B93FAA3F3FB62FB6AB3FA6C
:101BF00083F31A46254B13449B001A4601231360B6
:101C00004FF48033BB63BB6B93FAA3F37B637B6BB3
:101C1000B3FA83F31A461D4B13449B001A46002364
:101C20001360184AFB6B1362FB6B03F00103002B7C
:101C30004CD0FEF72FFB38640AE0FEF72BFB024680
:101C40003B6CD31A41F28832934201D9032380E1DD
:101C50000223BB62BB6A93FAA3F37B6202233B625B
:101C60003B6A93FAA3F3FB61FB69B3FA83F3DBB23C
:101C70005B09DBB243F00203DBB2022B08D1014B5C
:101C80001B6A0DE0001002400070004000819010BF
:101C90000223BB61BB6993FAA3F37B619C4B5B6A34
:101CA00002223A613A6992FAA2F2FA60FA68B2FA4A
:101CB00082F252B242F0400252B2D2B202F01F029D
:101CC000012101FA02F21340002BB6D09049904B4B
:101CD0001B6A23F440727B685B6813430B6297F8BE
:101CE0004730012B05D18A4A894BDB6923F08053A9
:101CF000D3617B681B6803F00103002B08D0844983
:101D0000834B1B6B23F003027B689B6813430B63BD
:101D10007B681B6803F00203002B08D07C497C4BD6
:101D20001B6B23F440327B68DB6813430B637B68D7
:101D30001B6803F00403002B08D07549744B1B6B20
:101D400023F440227B681B6913430B637B681B6889
:101D500003F02003002B08D06D496D4B1B6B23F063
:101D600010027B68DB6913430B637B681B6803F419
:101D70000033002B08D06649654B5B6823F4800272
:101D80007B685B6D13434B607B681B6803F040030B
:101D9000002B08D05E495E4B1B6B23F020027B6852
:101DA0001B6A13430B637B681B6803F48023002BBF
:101DB00008D05749564B1B6B23F040027B685B6A87
:101DC00013430B637B681B6803F00803002B08D0E8
:101DD0004F494F4B1B6B23F440127B685B691343E5
:101DE0000B637B681B6803F01003002B08D0484985
:101DF000474B1B6B23F440027B689B6913430B63C7
:101E00007B681B6803F40073002B08D04049404BEB
:101E10005B6823F400027B681B6B13434B607B6899
:101E20001B6803F08003002B08D03949384BDB6A6C
:101E300023F4F8727B689B6A1343CB627B681B6850
:101E400003F48073002B08D03149314BDB6A23F453
:101E500078527B68DB6A1343CB627B681B6803F4B0
:101E60008053002B08D02A49294B1B6B23F4807226
:101E70007B685B6B13430B637B681B6803F4005345
:101E8000002B08D02249224B1B6B23F400727B6885
:101E90001B6C13430B637B681B6803F48013002BDC
:101EA00008D01B491A4B1B6B23F080727B689B6B1D
:101EB00013430B637B681B6803F40013002B08D0EB
:101EC0001349134B1B6B23F000727B68DB6B1343CE
:101ED0000B637B681B6803F48003002B08D00C495C
:101EE0000B4B1B6B23F480627B685B6C13430B63AF
:101EF0007B681B6803F40003002B0BD00449044BE0
:101F00001B6B23F400627B689B6C13430B6301E043
:101F1000001002407B681B6803F08073002B08D020
:101F20000E490E4B1B6B23F400527B68DB6C134392
:101F30000B637B681B6803F00073002B08D0074914
:101F4000064B1B6B23F400427B681B6D13430B6332
:101F5000002318464837BD4680BD00BF0010024030
:101F600080B582B000AF78607B68002B01D101237F
:101F700043E07B6893F86930DBB2002B06D17B68C5
:101F8000002283F86820786802F0F0FF7B68242242
:101F900083F869207B681B687A681268126822F0EF
:101FA00001021A60786800F0F9F90346012B01D1AB
:101FB000012322E07B685B6A002B02D0786800F086
:101FC000EBFB7B681B687A681268526822F49042C7
:101FD0005A607B681B687A681268926822F02A024D
:101FE0009A607B681B687A681268126842F0010286
:101FF0001A60786800F072FC034618460837BD4640
:1020000080BD80B588B002AFF860B9603B60134610
:10201000FB8000237B61FB6893F86930DBB2202BE7
:1020200077D1BB68002B02D0FB88002B01D10123A4
:1020300070E0FB6893F86830012B01D1022369E05E
:10204000FB68012283F86820FB680022DA66FB68DF
:10205000212283F86920FEF71DF97861FB68FA8870
:10206000A3F85020FB68FA88A3F8522034E0FB68FC
:10207000B3F852309BB2013B9AB2FB68A3F85220EE
:102080003B6800937B6900228021F86800F06FFCB8
:102090000346002B01D003233CE0FB689B68B3F5AB
:1020A000805F11D1FB681B69002B0DD1BB683B61C0
:1020B000FB681B683A691288C2F3080292B21A855B
:1020C000BB680233BB6007E0FB681A68BB68591C39
:1020D000B9601B789BB21385FB68B3F852309BB292
:1020E000002BC4D13B6800937B6900224021F86833
:1020F00000F03DFC0346002B01D003230AE0FB68FF
:10210000202283F86920FB68002283F868200023DE
:1021100000E0022318461837BD4680BD80B586B062
:1021200000AF78607B681B68DB697B617B681B683C
:102130001B683B617B6903F00F03FB60FB68002BAE
:102140000DD17B6903F02003002B08D03B6903F01D
:102150002003002B03D0786800F0F7FCFAE07B68DE
:102160001B689B68BB60FB68002B00F0BA80BB68F3
:1021700003F00103002B05D13B6903F49073002B9E
:1021800000F0AF807B6903F00103002B0ED03B69A8
:1021900003F48073002B09D07B681B6801221A624C
:1021A0007B68DB6E43F001027B68DA667B6903F0D3
:1021B0000203002B0ED0BB6803F00103002B09D0F3
:1021C0007B681B6802221A627B68DB6E43F00402A4
:1021D0007B68DA667B6903F00403002B0ED0BB68D2
:1021E00003F00103002B09D07B681B6804221A62EC
:1021F0007B68DB6E43F002027B68DA667B6903F082
:102200000803002B13D03B6903F02003002B04D1FB
:10221000BB6803F00103002B09D07B681B68082210
:102220001A627B68DB6E43F008027B68DA667B68C3
:10223000DB6E002B00F08D807B6903F02003002B08
:1022400007D03B6903F02003002B02D0786800F030
:102250007CFC7B68DB6E03F00803002B06D17B68F7
:102260001B689B6803F04003402B31D1786800F075
:10227000C8FB7B681B689B6803F04003402B23D19D
:102280007B681B687A681268926822F040029A6044
:102290007B685B6E002B13D07B685B6E2F4A5A63A2
:1022A0007B685B6E1846FEF70CF90346002B16D0D0
:1022B0007B685B6E5B6B7A68526E104698470EE0E7
:1022C000786800F061F80AE0786800F05DF806E0F0
:1022D000786800F059F87B680022DA6639E000BFC0
:1022E00037E07B6903F48013002B15D0BB6803F43F
:1022F0008003002B10D07B681B684FF480121A6299
:102300007B68202283F869207B68202283F86A207A
:10231000786800F084FC1DE07B6903F08003002BEB
:1023200008D03B6903F08003002B03D0786800F0ED
:102330009CFB0FE07B6903F04003002B0AD03B6954
:1023400003F04003002B05D0786800F0E6FB00BFE7
:1023500000E000BF1837BD4680BD00BF3F2A00081F
:1023600080B483B000AF786000BF0C37BD465DF825
:10237000047B704780B483B000AF786000BF0C3737
:10238000BD465DF8047B704780B483B000AF7860D1
:1023900000BF0C37BD465DF8047B704790B587B031
:1023A00000AF78600023FB601023FB7500237B8166
:1023B0000023BB820023FB747B689A687B681B69DF
:1023C0001A437B685B691A437B68DB691343FB60D4
:1023D0007B681A687B681B681968A64B0B40F96814
:1023E0000B4313607B681B687A681268526822F49A
:1023F00040517A68D2680A435A607B689A697B6860
:102400001B6A1343FB607B681B687A6812689268DA
:1024100022F43061FA680A439A607B681B68964A26
:10242000934221D1954B1B6B03F00303032B17D869
:1024300001A252F823F000BF4924000855240008E7
:102440005B2400084F2400080123FB75B2E002233F
:10245000FB75AFE00423FB75ACE00823FB75A9E036
:102460001023FB7500BFA5E07B681B68844A93427C
:1024700023D1824B1B6B03F44033B3F5803F12D062
:10248000B3F5803F02D8002B07D012E0B3F5003F30
:102490000CD0B3F5403F03D00BE00023FB7589E07F
:1024A0000223FB7586E00423FB7583E00823FB759C
:1024B00080E01023FB7500BF7CE07B681B68714ADD
:1024C000934223D16D4B1B6B03F44023B3F5802F54
:1024D00012D0B3F5802F02D8002B07D012E0B3F54D
:1024E000002F0CD0B3F5402F03D00BE00023FB7579
:1024F00060E00223FB755DE00423FB755AE00823CE
:10250000FB7557E01023FB7500BF53E07B681B6829
:102510005D4A934223D1594B1B6B03F44013B3F52F
:10252000801F12D0B3F5801F02D8002B07D012E015
:10253000B3F5001F0CD0B3F5401F03D00BE0002310
:10254000FB7537E00223FB7534E00423FB7531E0B3
:102550000823FB752EE01023FB7500BF2AE07B6883
:102560001B684A4A934223D1444B1B6B03F440033C
:10257000B3F5800F12D0B3F5800F02D8002B07D02F
:1025800012E0B3F5000F0CD0B3F5400F03D00BE011
:102590000023FB750EE00223FB750BE00423FB75A3
:1025A00008E00823FB7505E01023FB7500BF01E080
:1025B0001023FB757B68DB69B3F5004F7DD1FB7D94
:1025C000082B65D801A252F823F000BFF1250008BE
:1025D0000D26000829260008912600084326000839
:1025E0009126000891260008912600085F26000821
:1025F000FFF756FA03465A007B685B685B081A448B
:102600007B685B68B2FBF3F3BB8244E0FFF76AFAD6
:1026100003465A007B685B685B081A447B685B680A
:10262000B2FBF3F3BB8236E07B685B685B0803F5C3
:10263000740303F510537A685268B3FBF2F3BB825C
:1026400029E0FFF7B7F903465A007B685B685B082F
:102650001A447B685B68B2FBF3F3BB821BE07B68C8
:102660005B685B0803F580327B685B68B2FBF3F361
:10267000BB8210E0F369FFEF003801400010024018
:102680000044004000480040004C00400050004022
:102690000123FB7400BFBB8A23F00F037B81BB8A3D
:1026A0005B109BB203F007039AB27B8913437B81D3
:1026B0007B681B687A89DA6069E0FB7D082B63D848
:1026C00001A252F823F000BFED2600080D270008F4
:1026D0002D270008892700084D27000889270008B2
:1026E00089270008892700086D2700087B681C6877
:1026F000FFF7D6F902467B685B685B081A447B6883
:102700005B68B2FBF3F39BB2E36040E07B681C685C
:10271000FFF7E8F902467B685B685B081A447B6850
:102720005B68B2FBF3F39BB2E36030E07B681A684E
:102730007B685B685B0803F5F40303F590537968E5
:102740004968B3FBF1F39BB2D36020E07B681C685F
:10275000FFF730F902467B685B685B081A447B68C8
:102760005B68B2FBF3F39BB2E36010E07B681B682D
:102770007A685268520802F500417A685268B1FBE3
:10278000F2F292B2DA6002E00123FB7400BFFB7C3C
:1027900018461C37BD4690BD80B483B000AF78604A
:1027A0007B685B6A03F00103002B0AD07B681B681F
:1027B0007A681268526822F400317A68926A0A4391
:1027C0005A607B685B6A03F00203002B0AD07B68C7
:1027D0001B687A681268526822F480317A68D26A7B
:1027E0000A435A607B685B6A03F00403002B0AD03B
:1027F0007B681B687A681268526822F480217A68C4
:10280000126B0A435A607B685B6A03F00803002B73
:102810000AD07B681B687A681268526822F400410B
:102820007A68526B0A435A607B685B6A03F0100354
:10283000002B0AD07B681B687A681268926822F4C1
:1028400080517A68926B0A439A607B685B6A03F0F6
:102850002003002B0AD07B681B687A681268926894
:1028600022F400517A68D26B0A439A607B685B6AF3
:1028700003F04003002B1AD07B681B687A6812684B
:10288000526822F480117A68126C0A435A607B689D
:102890001B6CB3F5801F0AD17B681B687A681268CD
:1028A000526822F4C0017A68526C0A435A607B680D
:1028B0005B6A03F08003002B0AD07B681B687A6890
:1028C0001268526822F400217A68926C0A435A60B6
:1028D00000BF0C37BD465DF8047B704780B586B0FD
:1028E00002AF78600023FB607B680022DA66FDF7A8
:1028F000D1FCF8607B681B681B6803F00803082B99
:102900000ED16FF07E430093FB6800224FF400115C
:10291000786800F02CF80346002B01D0032322E056
:102920007B681B681B6803F00403042B0ED16FF057
:102930007E430093FB6800224FF48001786800F02A
:1029400016F80346002B01D003230CE07B682022FD
:1029500083F869207B68202283F86A207B68002244
:1029600083F86820002318461037BD4680BD80B527
:1029700084B000AFF860B9603B601346FB712CE097
:10298000BB69B3F1FF3F28D0BB69002B07D0FDF72F
:1029900081FC02463B68D21ABB699A421DD9FB688A
:1029A0001B68FA681268126822F4D0721A60FB6819
:1029B0001B68FA681268926822F001029A60FB684C
:1029C000202283F86920FB68202283F86A20FB68B4
:1029D000002283F8682003230FE0FB681B68DA6994
:1029E000BB681A40BB689A420CBF01230023DBB2CC
:1029F0001A46FB799A42C3D0002318461037BD46C9
:102A000080BD80B483B000AF78607B681B687A6853
:102A10001268126822F490721A607B681B687A68E8
:102A20001268926822F001029A607B68202283F883
:102A30006A2000BF0C37BD465DF8047B704780B547
:102A400084B000AF78607B685B6AFB60FB68002243
:102A5000A3F85A20FB680022A3F85220F868FFF779
:102A600093FC00BF1037BD4680BD80B485B000AF79
:102A700078607B6893F86930DBB2212B46D17B68A4
:102A8000B3F852309BB2002B11D17B681B687A6877
:102A90001268126822F080021A607B681B687A68EC
:102AA0001268126842F040021A6000232FE07B682F
:102AB0009B68B3F5805F14D17B681B69002B10D134
:102AC0007B68DB6CFB607B681B68FA681288C2F36A
:102AD000080292B21A857B68DB6C9A1C7B68DA6408
:102AE00009E07B681A687B68DB6C581C7968C864ED
:102AF0001B789BB213857B68B3F852309BB2013BC5
:102B00009AB27B68A3F85220002300E00223184603
:102B10001437BD465DF8047B704780B582B000AFC6
:102B200078607B681B687A681268126822F040023D
:102B30001A607B68202283F869207868FFF710FC10
:102B4000002318460837BD4680BD80B584B000AF6D
:102B500078607B68B3F85C30FB817B6893F86A30FF
:102B6000DBB2222B4ED17B681B689B8CBB817B68C0
:102B70009B68B3F5805F12D17B681B69002B0ED177
:102B80007B685B6DBB60BA89FB8913409AB2BB68F6
:102B90001A807B685B6D9A1C7B685A650BE07B68CA
:102BA0005B6D591C7A685165BA89D1B2FA89D2B283
:102BB0000A40D2B21A707B68B3F85A309BB2013B1C
:102BC0009BB27A681946A2F85A10002B18D17B687C
:102BD0001B687A681268126822F490721A607B6827
:102BE0001B687A681268926822F001029A607B681A
:102BF000202283F86A207868FFF7BCFB00230AE0F4
:102C0000002308E07B681B687A681268926942F0CA
:102C100008029A61022318461037BD4680BD80B471
:102C200083B000AF786000BF0C37BD465DF8047B11
:102C3000704780B485B000AF0346FB800023FB6083
:102C4000B7F90630842B05D0B7F90620FB6813448A
:102C50000333FB60FB6818461437BD465DF8047B00
:102C6000704780B500AF01F0A7F80023184680BD7B
:102C7000F0B587B002AF786039607B685C687B68CC
:102C80001D687B681B699EB27B68B3F908301846E3
:102C9000FFF7CFFF024607F10C03019300923B6858
:102CA00032462946204600F029FF0346012B01D079
:102CB000002300E0FB6818461437BD46F0BD80B520
:102CC00084B000AF78607B68FB60FB68002B01D0AC
:102CD000FB6800E00123184601F03AF8002318468B
:102CE0001037BD4680BD80B582B000AF78603960D6
:102CF0007B6818687B685B680022194600F0D8FC86
:102D0000034618460837BD4680BD80B500AF01F0C8
:102D100037FC0346012B01D000F046FA00BF80BD0E
:102D200080B483B000AF78607B6803F108027B68F1
:102D30005A607B684FF0FF329A607B6803F10802AB
:102D40007B68DA607B6803F108027B681A617B6844
:102D500000221A6000BF0C37BD465DF8047B704747
:102D600080B483B000AF78607B6800221A6100BF36
:102D70000C37BD465DF8047B704780B485B000AF6A
:102D8000786039607B685B68FB603B68FA685A6012
:102D9000FB689A683B689A60FB689B683A685A606F
:102DA000FB683A689A603B687A681A617B681B68BE
:102DB0005A1C7B681A6000BF1437BD465DF8047B5F
:102DC000704780B485B000AF786039603B681B689D
:102DD000BB60BB68B3F1FF3F03D17B681B69FB603D
:102DE0000CE07B680833FB6002E0FB685B68FB601B
:102DF000FB685B681A68BB689A42F6D9FB685A6838
:102E00003B685A603B685B683A689A603B68FA685E
:102E10009A60FB683A685A603B687A681A617B6816
:102E20001B685A1C7B681A6000BF1437BD465DF8EA
:102E3000047B704780B485B000AF78607B681B6905
:102E4000FB607B685B687A6892689A607B689B68C5
:102E50007A6852685A60FB685A687B689A4203D164
:102E60007B689A68FB685A607B6800221A61FB687D
:102E70001B685A1EFB681A60FB681B6818461437EB
:102E8000BD465DF8047B704780B485B000AFF86044
:102E9000B9607A60FB68043BFB60FB684FF08072AE
:102EA0001A60FB68043BFB60BB6823F00102FB680F
:102EB0001A60FB68043BFB600C4AFB681A60FB6805
:102EC000143BFB607A68FB681A60FB68043BFB609C
:102ED000FB686FF002021A60FB68203BFB60FB6836
:102EE00018461437BD465DF8047B7047F12E000884
:102EF00080B483B000AF0C4B1B68B3F1FF3F09D027
:102F00004FF0500383F31188BFF36F8FBFF34F8FE0
:102F10007B60FEE74FF0500383F31188BFF36F8FA0
:102F2000BFF34F8F3B60FEE7080000200000000069
:102F3000074B19680868B0E8F04F80F30988BFF3C1
:102F40006F8F4FF0000080F311887047AFF300805F
:102F50005418002000BF00BF06480068006880F3D6
:102F6000088862B661B6BFF34F8FBFF36F8F00DF83
:102F700000BF00BF08ED00E080B586B000AF3B4B5E
:102F80001B683B4A934209D14FF0500383F31188E9
:102F9000BFF36F8FBFF34F8F3B61FEE7334B1B686F
:102FA000344A934209D14FF0500383F31188BFF3A1
:102FB0006F8FBFF34F8FFB60FEE72F4B7B617B6909
:102FC0001B78DBB2BB607B69FF221A707B691B78C0
:102FD000DBB2FB71FB79DBB203F05003DAB2274BB3
:102FE0001A70274B07221A6009E0254B1B68013B2A
:102FF000234A1360FB79DBB25B00DBB2FB71FB7928
:10300000DBB203F08003802BEFD01D4B1B681B024B
:103010001B4A13601A4B1B6803F4E063184A1360E1
:10302000BB68DAB27B691A70164A164B1B6843F408
:1030300070031360134A134B1B6843F07043136013
:1030400000F0D2F8104B00221A6000F0E9F80F4AA5
:103050000E4B1B6843F040431360FFF77DFFFFF703
:1030600047FF002318461837BD4680BD00ED00E03D
:1030700071C20F4170C20F4100E400E03400002033
:103080003800002020ED00E00800002034EF00E0D0
:1030900080B483B000AF4FF0500383F31188BFF3C7
:1030A0006F8FBFF34F8F7B600E4B1B6801330D4A50
:1030B00013600C4B1B68012B0ED10B4B1B68DBB252
:1030C000002B09D04FF0500383F31188BFF36F8FAB
:1030D000BFF34F8F3B60FEE700BF0C37BD465DF886
:1030E000047B70470800002004ED00E080B483B04A
:1030F00000AF114B1B68002B09D14FF0500383F335
:103100001188BFF36F8FBFF34F8F7B60FEE70A4BD1
:103110001B68013B084A1360074B1B68002B04D156
:1031200000233B603B6883F3118800BF0C37BD462A
:103130005DF8047B704700BF08000020000000001D
:10314000EFF30980BFF36F8F154B1A681EF0100F55
:1031500008BF20ED108A20E9F04F10604DF8043DC3
:103160004FF0500080F31188BFF34F8FBFF36F8F84
:1031700000F0CEFF4FF0000080F3118808BC196802
:103180000868B0E8F04F1EF0100F08BFB0EC108ACE
:1031900080F30988BFF36F8F704700BFAFF30080E3
:1031A0005418002000BF00BF80B582B000AF4FF0C0
:1031B000500383F31188BFF36F8FBFF34F8F7B6092
:1031C00000F0EAFE0346002B03D0064B4FF080527E
:1031D0001A6000233B603B6883F3118800BF083707
:1031E000BD4680BD04ED00E080B400AF084A094B45
:1031F0001B680949A1FB03139B09013B1360074BA3
:1032000007221A6000BFBD465DF8047B704700BF0F
:1032100014E000E014000020D34D621010E000E044
:10322000DFF80C00016841F470010160704700BFD5
:1032300088ED00E080B58AB000AF78600023FB61C4
:1032400000F000FE574B1B68002B01D100F00CF979
:10325000554B1A687B681340002B40F08C807B68CC
:10326000002B1CD008227B6813447B607B6803F032
:103270000703002B13D07B6823F0070308337B6020
:103280007B6803F00703002B09D04FF0500383F352
:103290001188BFF36F8FBFF34F8F7B61FEE77B68B1
:1032A000002B68D0414B1B687A689A4263D8404B28
:1032B0003B623F4B1B687B6204E07B6A3B627B6A3C
:1032C0001B687B627B6A5A687B689A4203D27B6A7E
:1032D0001B68002BF1D1334B1B687A6A9A424AD0A3
:1032E0003B6A1B6808221344FB617B6A1A683B6ACD
:1032F0001A607B6A5A687B68D21A08235B009A427C
:103300001ED97A6A7B681344BB61BB6903F007036B
:10331000002B09D04FF0500383F31188BFF36F8F58
:10332000BFF34F8F3B61FEE77B6A5A687B68D21A16
:10333000BB695A607B6A7A685A60B86900F0F6F82F
:103340001A4B1A687B6A5B68D31A184A1360174BCA
:103350001A68184B1B689A4203D2144B1B68154A13
:1033600013607B6A5A68104B1B681A437B6A5A6069
:103370007B6A00221A6000F073FDFB6903F007030B
:10338000002B09D04FF0500383F31188BFF36F8FE8
:10339000BFF34F8FFB60FEE7FB6918462837BD4639
:1033A00080BD00BF4418002050180020481800209D
:1033B0003C1800204C18002080B586B000AF786023
:1033C0007B687B617B68002B46D008235B427A696F
:1033D00013447B617B693B613B695A68204B1B68E6
:1033E0001340002B09D14FF0500383F31188BFF332
:1033F0006F8FBFF34F8FFB60FEE73B691B68002BAD
:1034000009D04FF0500383F31188BFF36F8FBFF3E0
:103410004F8FBB60FEE73B695A68114B1B68134036
:10342000002B19D03B691B68002B15D13B695A68EA
:103430000B4B1B68DB431A403B695A6000F002FDEE
:103440003B695A68074B1B681344064A1360386986
:1034500000F06CF800F004FD00BF1837BD4680BDD9
:10346000501800204818002080B485B000AF4FF4F9
:10347000C053BB60274BFB60FB6803F00703002BC6
:103480000CD0FB680733FB60FB6823F00703FB608D
:10349000BA68FB68D31A1F4A1344BB60FB687B60A1
:1034A0001D4A7B6813601C4B00225A607A68BB6817
:1034B0001344FB600822FB689B1AFB60FB6823F047
:1034C0000703FB60FB68154A1360144B1B6800225E
:1034D0005A60124B1B6800221A607B683B603B6895
:1034E000FA68D21A3B685A600C4B1A683B681A603B
:1034F0003B685B680A4A13603B685B68094A136073
:10350000094B4FF000421A6000BF1437BD465DF80A
:10351000047B70473C0000203C1800204418002029
:103520004C180020481800205018002080B485B0A6
:1035300000AF7860284BFB6002E0FB681B68FB6013
:10354000FB681A687B689A42F7D3FB68BB60FB682C
:103550005B68BA681A447B689A4208D1FB685A686B
:103560007B685B681A44FB685A60FB687B607B6819
:10357000BB607B685B68BA681A44FB681B689A4248
:1035800018D1FB681A68154B1B689A420DD07B68EE
:103590005A68FB681B685B681A447B685A60FB6862
:1035A0001B681A687B681A6008E00C4B1A687B6815
:1035B0001A6003E0FB681A687B681A60FA687B6827
:1035C0009A4202D0FB687A681A6000BF1437BD4681
:1035D0005DF8047B704700BF3C18002044180020B1
:1035E00080B584B000AF786039607B68FB60FB68B1
:1035F000002B09D14FF0500383F31188BFF36F8F75
:10360000BFF34F8FBB60FEE7FFF742FDFB681A6810
:10361000FB68DB6BF968096C01FB03F31A44FB6878
:103620005A60FB6800229A63FB681A68FB689A601C
:10363000FB681A68FB68DB6B013BF968096C01FBEE
:1036400003F31A44FB68DA60FB68FF2283F8442026
:10365000FB68FF2283F845203B68002B14D1FB68F0
:103660001B69002B1AD0FB681033184600F0CEFD02
:103670000346002B12D00D4B4FF080521A60BFF35F
:103680004F8FBFF36F8F09E0FB6810331846FFF7C9
:1036900047FBFB6824331846FFF742FBFFF726FD84
:1036A000012318461037BD4680BD00BF04ED00E081
:1036B00080B58AB002AFF860B9601346FB71FB6851
:1036C000002B09D14FF0500383F31188BFF36F8FA4
:1036D000BFF34F8F3B61FEE7BB68002B02D1002395
:1036E000FB6104E0FB68BA6802FB03F3FB61FB6962
:1036F00048331846FFF79EFDB861BB69002B0BD01D
:10370000BB6948337B61FA79BB69009313467A69D8
:10371000B968F86800F005F8BB6918462037BD465F
:1037200080BD80B584B000AFF860B9607A60FB708E
:10373000BB68002B03D1BB69BA691A6002E0BB69A0
:103740007A681A60BB69FA68DA63BB69BA681A6496
:103750000121B869FFF744FF00BF1037BD4680BDA7
:1037600080B58EB000AFF860B9607A603B6000232E
:103770007B63FB683B633B6B002B09D14FF050032D
:1037800083F31188BFF36F8FBFF34F8FBB62FEE7E8
:10379000BB68002B03D13B6B1B6C002B01D10123B9
:1037A00000E00023002B09D14FF0500383F3118870
:1037B000BFF36F8FBFF34F8F7B62FEE73B68022B37
:1037C00003D13B6BDB6B012B01D1012300E0002314
:1037D000002B09D14FF0500383F31188BFF36F8F93
:1037E000BFF34F8F3B62FEE700F0CAFE0346002B9B
:1037F00002D17B68002B01D1012300E00023002BC4
:1038000009D14FF0500383F31188BFF36F8FBFF3DB
:103810004F8FFB61FEE7FFF73BFC3B6B9A6B3B6B0B
:10382000DB6B9A4202D33B68022B29D13A68B96814
:10383000386B00F08FF8F8623B6B5B6A002B10D09E
:103840003B6B2433184600F0E1FC0346002B13D0F9
:103850003F4B4FF080521A60BFF34F8FBFF36F8F13
:103860000AE0FB6A002B07D0394B4FF080521A60F8
:10387000BFF34F8FBFF36F8FFFF738FC012363E077
:103880007B68002B03D1FFF731FC00235CE07B6BEE
:10389000002B06D107F11403184600F019FD01238F
:1038A0007B63FFF723FC00F0CDFAFFF7F1FB3B6BE6
:1038B00093F844305BB2B3F1FF3F03D13B6B00227E
:1038C00083F844203B6B93F845305BB2B3F1FF3F84
:1038D00003D13B6B002283F84520FFF707FC3A1D1C
:1038E00007F114031146184600F016FD0346002B9D
:1038F00024D1386B00F0EAF80346002B18D03B6B5C
:1039000010337A681146184600F05CFC386B00F002
:103910008BF800F0A5FA0346002B7FF47CAF0C4B2C
:103920004FF080521A60BFF34F8FBFF36F8F72E773
:10393000386B00F079F800F093FA6CE7386B00F020
:1039400073F800F08DFA002318463837BD4680BD65
:1039500004ED00E080B586B000AFF860B9607A6031
:1039600000237B61FB689B6B3B61FB681B6C002B3E
:103970000DD1FB681B68002B4DD1FB685B681846B6
:1039800000F01CFE7861FB6800225A6043E07B680F
:10399000002B19D1FB689868FB681B6C1A46B96844
:1039A00001F074FBFB689A68FB681B6C1A44FB68A7
:1039B0009A60FB689A68FB685B689A422BD3FB6845
:1039C0001A68FB689A6026E0FB68D868FB681B6C85
:1039D0001A46B96801F05AFBFB68DA68FB681B6C91
:1039E0005B421A44FB68DA60FB68DA68FB681B68B4
:1039F0009A4207D2FB685A68FB681B6C5B421A4408
:103A0000FB68DA607B68022B05D13B69002B02D092
:103A10003B69013B3B613B695A1CFB689A637B69CC
:103A200018461837BD4680BD80B584B000AF7860B9
:103A3000FFF72EFB7B6893F84530FB7311E07B6842
:103A40005B6A002B12D07B682433184600F0DEFB43
:103A50000346002B01D000F0BDFCFB7B013BDBB239
:103A6000FB7397F90F30002BE9DC00E000BF7B68A7
:103A7000FF2283F84520FFF739FBFFF709FB7B683E
:103A800093F84430BB7311E07B681B69002B12D0A4
:103A90007B681033184600F0B9FB0346002B01D0B9
:103AA00000F098FCBB7B013BDBB2BB7397F90E3097
:103AB000002BE9DC00E000BF7B68FF2283F8442094
:103AC000FFF714FB00BF1037BD4680BD80B584B042
:103AD00000AF7860FFF7DCFA7B689A6B7B68DB6B82
:103AE0009A4202D10123FB6001E00023FB60FFF753
:103AF000FDFAFB6818461037BD4680BD80B58CB016
:103B000004AFF860B9603B601346FB80FB889B0004
:103B10001846FFF78FFB78617B69002B0ED054208D
:103B2000FFF788FBF861FB69002B03D0FB697A691A
:103B30001A6305E07869FFF73FFC01E00023FB61B1
:103B4000FB69002B13D0FA8800230393FB690293CF
:103B5000FB6A0193BB6A00933B68B968F86800F0A0
:103B60000EF8F86900F08AF80123BB6102E04FF01B
:103B7000FF33BB61BB6918462037BD4680BD80B5A9
:103B800088B000AFF860B9607A603B603B6B1A6B3D
:103B90007B6803F18043013B9B001344BB61BB691D
:103BA00023F00703BB61BB6903F00703002B09D0B7
:103BB0004FF0500383F31188BFF36F8FBFF34F8F24
:103BC0007B61FEE70023FB6112E0BA68FB691344E6
:103BD00019783A6BFB69134434330A461A70BA6891
:103BE000FB6913441B78002B06D0FB690133FB6192
:103BF000FB690F2BE9D900E000BF3B6B002283F883
:103C00004320BB6A062B01D90623BB623B6BBA6A11
:103C1000DA623B6BBA6A5A643B6B00229A643B6B74
:103C200004331846FFF79CF83B6B18331846FFF730
:103C300097F83B6B3A6B1A61BB6AC3F107023B6BA7
:103C40009A613B6B3A6B5A623B6B0022DA643B6BC6
:103C5000002283F850203A68F968B869FFF714F930
:103C600002463B6B1A60FB6A002B02D0FB6A3A6B80
:103C70001A6000BF2037BD4680BD000080B582B00D
:103C800000AF7860FFF704FA2A4B1B680133294A1A
:103C90001360294B1B68002B09D1274A7B681360EE
:103CA000244B1B68012B10D100F0B8FB0DE0234B17
:103CB0001B68002B09D1204B1B68DA6A7B68DB6A22
:103CC0009A4202D81C4A7B6813601D4B1B68013363
:103CD0001B4A13607B68DB6A01229A40194B1B6800
:103CE0001343184A13607B68DA6A13469B00134437
:103CF0009B00154A1A447B68043319461046FFF7A7
:103D00003CF8FFF7F3F90D4B1B68002B0ED00A4B64
:103D10001B68DA6A7B68DB6A9A4207D20B4B4FF06A
:103D200080521A60BFF34F8FBFF36F8F00BF083709
:103D3000BD4680BD54190020541800206019002091
:103D4000701900205C1900205818002004ED00E0D4
:103D500080B584B000AF78600023FB607B68002BE7
:103D600016D0134B1B68002B09D04FF0500383F380
:103D70001188BFF36F8FBFF34F8FBB60FEE700F07A
:103D800061F80021786800F09DFC00F069F8F860A7
:103D9000FB68002B07D1074B4FF080521A60BFF32E
:103DA0004F8FBFF36F8F00BF1037BD4680BD00BF80
:103DB0007C19002004ED00E080B586B002AF1B4BFB
:103DC0000193002300930023802219491948FFF72B
:103DD00095FEF860FB68012B15D14FF0500383F37B
:103DE0001188BFF36F8FBFF34F8FBB60124B4FF043
:103DF000FF321A60114B01221A60114B00221A6027
:103E0000FFF7BAF80DE0FB68B3F1FF3F09D14FF0BF
:103E1000500383F31188BFF36F8FBFF34F8F7B6025
:103E2000FEE700BF1037BD4680BD00BF78190020F7
:103E3000CC500008ED4300087419002060190020E0
:103E40005819002080B400AF044B1B680133034AAB
:103E5000136000BFBD465DF8047B70477C190020ED
:103E600080B584B000AF0023FB600023BB60414BF2
:103E70001B68002B09D14FF0500383F31188BFF367
:103E80006F8FBFF34F8F3B60FEE7FFF701F9394BB0
:103E90001B68013B374A1360364B1B68002B61D10E
:103EA000354B1B68002B5DD02EE0344BDB68DB68A4
:103EB000FB60FB6818331846FEF7BCFFFB68043351
:103EC0001846FEF7B7FFFB68DB6A01229A402C4BCD
:103ED0001B6813432A4A1360FB68DA6A13469B0087
:103EE00013449B00274A1A44FB68043319461046C2
:103EF000FEF743FFFB68DA6A234B1B68DB6A9A42D2
:103F000002D3224B01221A601C4B1B68002BCCD120
:103F1000FB68002B01D000F00DFB1D4B1B687B6084
:103F20007B68002B10D000F037F80346002B02D03E
:103F3000164B01221A607B68013B7B607B68002B7B
:103F4000F1D1134B00221A60104B1B68002B09D0D3
:103F50000123BB600F4B4FF080521A60BFF34F8FAD
:103F6000BFF36F8FFFF7C2F8BB6818461037BD4626
:103F700080BD00BF7C1900205419002014190020B6
:103F80005C190020581800205418002068190020DF
:103F90006419002004ED00E080B586B000AF002376
:103FA0007B61504B1B68002B40F08C804E4B1B6894
:103FB00001333B614C4A3B6913603B69002B1FD1C5
:103FC0004A4B1B681B68002B09D04FF0500383F34A
:103FD0001188BFF36F8FBFF34F8F3B60FEE7434BFA
:103FE0001B68FB60424B1B68404A1360404AFB68F9
:103FF0001360404B1B6801333E4A136000F09AFA8D
:104000003D4B1B683A699A424DD3384B1B681B687D
:10401000002B01D1012300E00023002B04D0364BFC
:104020004FF0FF321A603EE0304B1B68DB68DB6804
:10403000BB60BB685B687B603A697B689A4203D26D
:104040002D4A7B6813602EE0BB6804331846FEF7E8
:10405000F1FEBB689B6A002B04D0BB68183318467E
:10406000FEF7E8FEBB68DB6A01229A40234B1B681F
:104070001343224A1360BB68DA6A13469B00134459
:104080009B001F4A1A44BB68043319461046FEF7CA
:1040900074FEBB68DA6A1B4B1B68DB6A9A42B4D3B6
:1040A00001237B61B1E7174B1B68DA6A1449134699
:1040B0009B0013449B000B441B68012B07D9012371
:1040C0007B6104E0104B1B6801330F4A13600F4BF8
:1040D0001B68002B01D001237B617B6918461837D0
:1040E000BD4680BD7C190020581900200C19002005
:1040F000101900206C190020741900205C19002090
:104100005818002054180020641900206819002055
:1041100080B487B000AF264B1B68002B03D0254B23
:1041200001221A603EE0234B00221A60224B1B68DA
:10413000FB60FB68B3FA83F3FB72FB7AC3F11F03E6
:104140007B611E497A6913469B0013449B000B4414
:104150001B68002B09D14FF0500383F31188BFF384
:104160006F8FBFF34F8F7B60FEE77A6913469B002A
:1041700013449B00114A13443B613B695B685A68D6
:104180003B695A603B695A683B6908339A4204D1DB
:104190003B695B685A683B695A603B695B68DB68EE
:1041A000074A136000BF1C37BD465DF8047B7047AB
:1041B0007C190020681900205C1900205818002084
:1041C0005418002080B584B000AF786039607B68F7
:1041D000002B09D14FF0500383F31188BFF36F8F89
:1041E000BFF34F8FFB60FEE7074B1B681833194680
:1041F0007868FEF7E6FD0121386800F063FA00BF39
:104200001037BD4680BD00BF5418002080B586B071
:1042100000AF78607B68DB68DB683B613B69002B43
:1042200009D14FF0500383F31188BFF36F8FBFF3B1
:104230004F8FFB60FEE73B6918331846FEF7FAFD27
:104240001D4B1B68002B1CD13B6904331846FEF73D
:10425000F1FD3B69DB6A01229A40184B1B6813434E
:10426000164A13603B69DA6A13469B0013449B00AD
:10427000134A1A443B69043319461046FEF77DFD84
:1042800005E03B69183319460E48FEF776FD3B6999
:10429000DA6A0D4B1B68DB6A9A4205D901237B6100
:1042A0000A4B01221A6001E000237B617B691846FA
:1042B0001837BD4680BD00BF7C1900205C19002066
:1042C00058180020141900205418002068190020E4
:1042D00080B485B000AF78607B68002B09D14FF0C7
:1042E000500383F31188BFF36F8FBFF34F8FFB60D1
:1042F000FEE7074B1A687B681A60064B1A687B68F2
:104300005A6000BF1437BD465DF8047B704700BF9C
:104310006C1900205819002080B586B000AF786075
:1043200039607B68002B09D14FF0500383F311886B
:10433000BFF36F8FBFF34F8FFB60FEE73B68002B2F
:1043400009D14FF0500383F31188BFF36F8FBFF390
:104350004F8FBB60FEE7FEF79BFE1C4B1B683B616B
:104360003B681B68B3F1FF3F02D100237B6126E06D
:104370007B681A68164B1B689A4207D07B685A689C
:104380003B699A4202D801237B6118E07B685B6835
:104390003A69D21A3B681B689A420ED23B681A6887
:1043A0007B6859683B69CB1A1A443B681A60786885
:1043B000FFF78EFF00237B6101E001237B61FEF7A5
:1043C00095FE7B6918461837BD4680BD58190020F8
:1043D0006C19002080B400AF034B01221A6000BFAB
:1043E000BD465DF8047B70476819002080B582B037
:1043F00000AF786000F052F8064B1B68012BF9D92A
:10440000054B4FF080521A60BFF34F8FBFF36F8F91
:10441000F0E700BF5818002004ED00E080B582B03E
:1044200000AF00237B600CE07A6813469B001344C6
:104430009B00124A13441846FEF772FC7B68013356
:104440007B607B68062BEFD90D48FEF769FC0D48B1
:10445000FEF766FC0C48FEF763FC0C48FEF760FCB8
:104460000B48FEF75DFC0B4B054A1A600A4B054AE8
:104470001A6000BF0837BD4680BD00BF5818002035
:10448000E4180020F8180020141900202819002032
:10449000401900200C1900201019002080B582B0AE
:1044A00000AF28E0FFF7CEFC174B1B68002B0CBFBA
:1044B00001230023DBB27B60FFF7D2FC7B68002B7B
:1044C00019D1FEF7E5FD104BDB68DB683B603B680C
:1044D00004331846FEF7AEFC0C4B1B68013B0B4A3D
:1044E00013600B4B1B68013B094A1360FEF7FEFD8E
:1044F000386800F00FF8064B1B68002BD2D100BFC4
:104500000837BD4680BD00BF28190020541900207F
:104510003C19002080B582B000AF78607B681B6BCF
:104520001846FEF749FF7868FEF746FF00BF0837D8
:10453000BD4680BD80B483B000AF0F4B1B681B68C5
:10454000002B01D1012300E00023002B04D00B4BF2
:104550004FF0FF321A6008E0074B1B68DB68DB682E
:104560007B607B685B68054A136000BF0C37BD4603
:104570005DF8047B704700BF0C19002074190020FF
:1045800080B483B000AF0B4B1B68002B02D101231A
:104590007B6008E0084B1B68002B02D102237B6084
:1045A00001E000237B607B6818460C37BD465DF850
:1045B000047B7047601900207C19002080B586B00C
:1045C00000AF78607B683B6100237B617B68002BD8
:1045D0006CD0394B1B683A699A4209D04FF05003AE
:1045E00083F31188BFF36F8FBFF34F8FFB60FEE73C
:1045F0003B699B6C002B09D14FF0500383F311886A
:10460000BFF36F8FBFF34F8FBB60FEE73B699B6CBF
:104610005A1E3B699A643B69DA6A3B695B6C9A4251
:1046200044D03B699B6C002B40D13B690433184656
:10463000FEF700FC0346002B15D13B69DA6A1F49DF
:1046400013469B0013449B000B441B68002B0AD1AC
:104650003B69DB6A012202FA03F3DA43184B1B6859
:104660001340174A13603B695A6C3B69DA623B6935
:10467000DB6AC3F107023B699A613B69DB6A01228D
:104680009A400F4B1B6813430D4A13603B69DA6A6B
:1046900013469B0013449B00084A1A443B690433A9
:1046A00019461046FEF769FB01237B617B691846BA
:1046B0001837BD4680BD00BF541800205818002090
:1046C0005C19002080B584B000AF78603960294B58
:1046D0001B68FB60284B1B6804331846FEF7AAFBD7
:1046E0000346002B0BD1244B1B68DB6A012202FA24
:1046F00003F3DA43214B1B681340204A13607B68A5
:10470000B3F1FF3F0AD13B68002B07D01A4B1B685F
:10471000043319461A48FEF730FB26E0FA687B6836
:104720001344BB60144B1B68BA685A60BA68FB68D4
:104730009A4209D2134B1A680F4B1B68043319466F
:104740001046FEF73EFB10E00F4B1A680A4B1B6841
:10475000043319461046FEF734FB0C4B1B68BA684D
:104760009A4202D2094ABB68136000BF1037BD46A7
:1047700080BD00BF58190020541800205C1900208B
:1047800040190020101900200C1900207419002075
:1047900080B485B000AF78600023FB730023BB7347
:1047A0000023BB600023FB7358E00023BB7349E088
:1047B000FB7BDB00DAB2BB7B13447B73FB7B002B00
:1047C00002D0FB7B072B0FD17B7BB97B7A68284813
:1047D000415CD154FB7B002B2DD17A7B79688B5CBB
:1047E00043F080038B5426E0FB7B012B02D0FB7B44
:1047F000062B15D17B7B7968CA5C012060F3060229
:10480000CA547968CA5C6FF3C712CA54FB7B012B88
:1048100011D17A7B79688B5C43F080038B540AE07A
:104820007B7B7968CA5C6FF30602CA547968CA5CFC
:104830006FF3C712CA54BB7A5B00DBB2BB72BB7B9F
:104840000133BB73BB7B072BB2D90123BB723B89FE
:104850005B009BB23B81FB7B0133FB73FB7B072B34
:10486000A3D900BF1437BD465DF8047B704700BF75
:104870000C000020B0B59CB000AF334B07F15C04D6
:104880001D460FCD0FC42B68236007F15C03002188
:104890001846FEF7EDF902462C4B1A602C4B07F137
:1048A00048041D460FCD0FC42B68236007F1480351
:1048B00000211846FEF7DCF90246264B1A60264B0B
:1048C00007F134041D460FCD0FC42B68236007F198
:1048D000340300211846FEF7CBF902461F4B1A603D
:1048E0001F4B07F120041D460FCD0FC42B6823601A
:1048F00007F1200300211846FEF7BAF90246194BCA
:104900001A60194B07F10C041D460FCD0FC42B681C
:10491000236007F10C0300211846FEF7A9F90246AF
:10492000124B1A60124A3B1D92E8030083E8030011
:104930003B1D00211846FEF7D6F902460D4B1A60C2
:1049400000BF7037BD46B0BDE0500008CC1A002053
:1049500004510008DC1A002020510008D41A00205D
:104960003C510008D01A002060510008C81A0020ED
:1049700074510008D81A002080B582B000AF78606A
:104980000120FEF79CF9FBE780B58AB000AF07F184
:10499000140300221A605A609A60DA601A613B4A76
:1049A0003A4B5B6943F400235361384B5B6903F472
:1049B00000233B613B69354A344B5B6943F4800318
:1049C0005361324B5B6903F48003FB60FB682F4A41
:1049D0002E4B5B6943F4003353612C4B5B6903F44A
:1049E0000033BB60BB68294A284B5B6943F48023D2
:1049F0005361264B5B6903F480237B607B68002254
:104A0000FF212348FBF742FF002220214FF0904076
:104A1000FBF73CFF4FF400537B611E4BBB6100234F
:104A2000FB6107F1140319461948FBF789FDFF23C1
:104A30007B610123BB610023FB6100233B6207F123
:104A4000140319461248FBF77BFD20237B610123E9
:104A5000BB610023FB6100233B6207F1140319468D
:104A60004FF09040FBF76CFD4FF47F437B610023D8
:104A7000BB610223FB6107F1140319460648FBF7EB
:104A80005FFD00BF2837BD4680BD00BF001002405B
:104A900000080048000021100004004880B500AF65
:104AA000FBF79EFB00F00BF8FFF76EFF00F02EFA0D
:104AB00000F063F8FFF7DEFEFEF7D3F8FEE780B5FF
:104AC000A6B000AF07F1700328220021184600F0BD
:104AD000E8FA07F15C0300221A605A609A60DA6013
:104AE0001A613B1D58220021184600F0DAFA012312
:104AF0003B674FF4A0237B670123FB670223C7F8C2
:104B000088304FF48033C7F88C304FF4E013C7F887
:104B100090300023C7F8943007F170031846FBF774
:104B2000DFFE0346002B01D000F033F80F23FB65B6
:104B300002233B6600237B664FF48063BB66002341
:104B4000FB6607F15C0302211846FCF7B7FD03463C
:104B5000002B01D000F01DF802237B6000233B6195
:104B60003B1D1846FCF7E0FF0346002B01D000F088
:104B700010F800BF9837BD4680BD80B500AF002259
:104B800005212620FBF767FC2620FBF780FC00BFF1
:104B900080BD80B400AF00BFBD465DF8047B7047A8
:104BA00080B485B000AF78600023FB730023BB7333
:104BB0000023BB607B68012283F800210123BB72C4
:104BC0004FF480733B810023FB720023FB7320E0D2
:104BD0000023BB7311E0BA7BFB7BDB0013447A68D4
:104BE0009B00134407F1080210681860BB7A5B0051
:104BF000DBB2BB72BB7B0133BB73BB7B072BEAD938
:104C00000123BB723B895B009BB23B81FB7B013381
:104C1000FB73FB7B072BDBD900BF1437BD465DF868
:104C2000047B704790B585B000AF78600023FB73BC
:104C30000023BB7301237B734FF480737B810023BC
:104C4000FB7350E07B7B9BB2012219462948FBF79E
:104C50001DFE0023BB7333E0FB7BDB00DAB2BB7BC2
:104C60001344DBB27B727B7A7A689B001344DC7856
:104C70007B8919462048FBF7F1FD03469C4219D079
:104C80007B7A19467B7A7A689B001344DB78002B89
:104C90000CBF01230023DBB218467A688B00134453
:104CA0000246DA70154B186807F10901002301224A
:104CB000FEF756FD7B895B007B81BB7B0133BB73B9
:104CC000BB7B072BC8D94FF480737B817B7B9BB266
:104CD000002219460748FBF7D9FD7B7B5B007B73FD
:104CE000FB7B0133FB73FB7B072BABD900BF143776
:104CF000BD4690BD0008004800040048D81A0020B6
:104D000080B582B000AF78600348FFF741FD0A200C
:104D1000FDF7D5FFFBE700BF8019002080B582B00A
:104D200000AF78600948FFF73BFF0848FFF77AFFBC
:104D3000064B93F80031002B03D0044B002283F87C
:104D40000021FA20FDF7BBFFEFE700BFC0190020EC
:104D500080B582B000AF786020214FF09040FBF723
:104D6000ADFDFA20FDF7ABFFF6E7000090B58BB084
:104D700000AF7860134B07F108040FCB07C4237012
:104D800007F1150300221A605A609A60DA601A74FB
:104D90000023FB8407F108030B4A1C4613460FCB84
:104DA00084E80F000F23FB84FA8C07F108014FF40D
:104DB0007A730648FDF725F94FF47A70FDF77FFF07
:104DC000F2E700BF8C5100087C510008E01A002077
:104DD00080B582B000AF114A104B9B6943F00103CC
:104DE00093610E4B9B6903F001037B607B680B4A68
:104DF0000A4BDB6943F08053D361084BDB6903F056
:104E000080533B603B6800220F216FF00100FBF7ED
:104E100022FB00BF0837BD4680BD00BF0010024026
:104E200080B400AF00BFBD465DF8047B704780B41E
:104E300000AFFEE780B400AFFEE780B400AFFEE74E
:104E400080B400AFFEE780B400AF00BFBD465DF8A0
:104E5000047B704780B500AFFBF708FAFDF755FFFC
:104E600000BF80BD80B500AF0248FDF757F900BF15
:104E700080BD00BFE01A002080B400AF1F4A1F4B66
:104E8000D3F8883043F47003C2F888301C4A1C4BB6
:104E90001B6843F0010313601949194B5A68194BF9
:104EA00013404B60164A164B1B6823F0847323F49F
:104EB00080331360124A124B1B6823F48023136063
:104EC0000F4A0F4B5B6823F4FE0353600C4A0C4BF4
:104ED000DB6A23F00F03D3620949094B1A6B0A4BB3
:104EE00013400B63064B00229A60044B4FF00062A4
:104EF0009A6000BFBD465DF8047B704700ED00E09E
:104F0000001002400CC07FF8CCFC00FF80B500AF61
:104F1000144B154A1A60134B4FF4E1325A60114B8F
:104F200000229A600F4B0022DA600E4B00221A61B9
:104F30000C4B0C225A610B4B00229A61094B002248
:104F4000DA61084B00221A62064B00225A620548B9
:104F5000FDF706F80346002B01D0FFF71AFE00BF4D
:104F600080BD00BFE01A00200044004080B58AB038
:104F700000AF786007F1140300221A605A609A604B
:104F8000DA601A617B681B68174A934228D1174A76
:104F9000164BDB6943F40033D361144BDB6903F434
:104FA00000333B613B69114A104B5B6943F40033AA
:104FB00053610E4B5B6903F40033FB60FB680C2309
:104FC0007B610223BB610023FB6100233B6207235B
:104FD0007B6207F1140319464FF09040FBF7B0FADB
:104FE00000BF2837BD4680BD00440040001002408D
:104FF000DFF834D0002103E00C4B5B584350043100
:105000000B480C4B42189A42F6D30B4A02E000239D
:1050100042F8043B094B9A42F9D3FFF72DFF00F009
:1050200011F8FFF73BFDFEE700000120EC510008FE
:10503000000000201800002018000020501B002055
:10504000FEE7000070B50D4E0D4CA41BA41000250A
:10505000A54209D10B4E0C4C00F02CF8A41BA41057
:105060000025A54205D170BD56F825309847013579
:10507000EEE756F8253098470135F2E7E45100088D
:10508000E4510008E4510008E851000810B5431E3F
:105090000A44914200D110BD11F8014B03F8014FB1
:1050A000F7E702440346934200D1704703F8011B1F
:1050B000F9E70000F8B500BFF8BC08BC9E46704791
:0C50C000F8B500BFF8BC08BC9E46704765
:1050CC0049444C450000000064656661756C74547D
:1050DC0061736B00D450000879490008FDFF000093
:1050EC0000000000800000006D756C7469706C65C8
:1050FC007865725461736B00F45000081D4D000804
:10510C000000000000000000800000006C6564548A
:10511C0061736B0018510008514D0008FEFF000030
:10512C000000000080000000636F6D5461736B0021
:10513C00345100086D4D0008000000000000000014
:10514C00800000006368657373626F617264546100
:10515C00736B000050510008014D0008FDFF00006A
:10516C0000000000800000001000000001000000A2
:10517C0048656C6C6F20576F726C6421200A0D00AF
:10518C0048656C6C6F20576F726C642100000000D6
:10519C000000000000000000000000000000000003
:1051AC0002030405060708090A0B0C0D0E0F10105C
:1051BC000102030405060708090A0B0C0D0E0F105B
:1051CC0000000000000000000102030406070809AB
:0851DC000000000001020304C1
:0451E400C5010008F9
:0451E800A101000819
:1051EC001000000001000000AAAAAAAA04030205EC
:0851FC000602030400127A0010
:0400000508004FF1AF
:00000001FF
